:020000040000fa
:04005c008c03000011
:020000040000fa
:040010008c0300005d
:020000040000fa
:04025c008c0300000f
:020000040000fa
:040210008c0300005b
:020000040000fa
:0402b4008c030000b7
:020000040000fa
:0402b0008c030000bb
:020000040000fa
:040340008c0300002a
:020000040000fa
:040270008c030000fb
:020000040000fa
:040274008c030000f7
:020000040000fa
:040334008c03000036
:020000040000fa
:040364008c03000006
:020000040000fa
:040360008c0300000a
:020000040000fa
:040318008c03000052
:020000040000fa
:04023800d4020000ec
:020000040000fa
:040260008c0300000b
:020000040000fa
:040288008c030000e3
:020000040000fa
:0402b8008c030000b3
:020000040000fa
:0402e0008c0300008b
:020000040000fa
:04031c008c0300004e
:020000040000fa
:040338008c03000032
:020000040000fa
:04033c008c0300002e
:020000040000fa
:04021c008c0300004f
:020000040000fa
:04022c008c0300003f
:020000040000fa
:04023c008c0300002f
:020000040000fa
:040280008c030000eb
:020000040000fa
:040284008c030000e7
:020000040000fa
:040228008c03000043
:020000040000fa
:040278008c030000f3
:020000040000fa
:04029c008c030000cf
:020000040000fa
:040264008c03000007
:020000040000fa
:04027c008c030000ef
:020000040000fa
:0402bc008c030000af
:020000040000fa
:0402c0008c030000ab
:020000040000fa
:0402c4008c030000a7
:020000040000fa
:0402c8008c030000a3
:020000040000fa
:0402cc008c0300009f
:020000040000fa
:0402d0008c0300009b
:020000040000fa
:0402d4008c03000097
:020000040000fa
:0402d8008c03000093
:020000040000fa
:0402e4008c03000087
:020000040000fa
:0402e8008c03000083
:020000040000fa
:0402ec008c0300007f
:020000040000fa
:0402f0008c0300007b
:020000040000fa
:0402f4008c03000077
:020000040000fa
:0402f8008c03000073
:020000040000fa
:0402fc008c0300006f
:020000040000fa
:040300008c0300006a
:020000040000fa
:040304008c03000066
:020000040000fa
:040308008c03000062
:020000040000fa
:04030c008c0300005e
:020000040000fa
:040310008c0300005a
:020000040000fa
:040314008c03000056
:020000040000fa
:040324008c03000046
:020000040000fa
:040328008c03000042
:020000040000fa
:040344008c03000026
:020000040000fa
:040348008c03000022
:020000040000fa
:04034c008c0300001e
:020000040000fa
:040350008c0300001a
:020000040000fa
:040354008c03000016
:020000040000fa
:040358008c03000012
:020000040000fa
:04035c008c0300000e
:020000040000fa
:04026c008c030000ff
:020000040000fa
:040218008c03000053
:020000040000fa
:040230008c0300003b
:020000040000fa
:040240008c0300002b
:020000040000fa
:04028c008c030000df
:020000040000fa
:040290008c030000db
:020000040000fa
:04020c008c0300005f
:020000040000fa
:0402dc008c0300008f
:020000040000fa
:040320008c0300004a
:020000040000fa
:040208008c03000063
:020000040000fa
:040220008c0300004b
:020000040000fa
:040224008c03000047
:020000040000fa
:040268008c03000003
:020000040000fa
:04024c008c0300001f
:020000040000fa
:040250008c0300001b
:020000040000fa
:0402a8008c030000c3
:020000040000fa
:0402ac008c030000bf
:020000040000fa
:040214008c03000057
:020000040000fa
:040234008c03000037
:020000040000fa
:040244008c03000027
:020000040000fa
:040248008c03000023
:020000040000fa
:040294008c030000d7
:020000040000fa
:040298008c030000d3
:020000040000fa
:04032c008c0300003e
:020000040000fa
:040254008c03000017
:020000040000fa
:040258008c03000013
:020000040000fa
:040330008c0300003a
:020000040000fa
:0402a0008c030000cb
:020000040000fa
:0402a4008c030000c7
:020000040000fa
:0400b4008c030000b9
:020000040000fa
:0400b0008c030000bd
:020000040000fa
:040140008c0300002c
:020000040000fa
:040070008c030000fd
:020000040000fa
:040074008c030000f9
:020000040000fa
:040134008c03000038
:020000040000fa
:040164008c03000008
:020000040000fa
:040160008c0300000c
:020000040000fa
:040118008c03000054
:020000040000fa
:040060008c0300000d
:020000040000fa
:040088008c030000e5
:020000040000fa
:0400b8008c030000b5
:020000040000fa
:0400e0008c0300008d
:020000040000fa
:04011c008c03000050
:020000040000fa
:040138008c03000034
:020000040000fa
:04013c008c03000030
:020000040000fa
:04001c008c03000051
:020000040000fa
:04002c008c03000041
:020000040000fa
:04003c008c03000031
:020000040000fa
:040080008c030000ed
:020000040000fa
:040084008c030000e9
:020000040000fa
:040028008c03000045
:020000040000fa
:040078008c030000f5
:020000040000fa
:04009c008c030000d1
:020000040000fa
:040064008c03000009
:020000040000fa
:04007c008c030000f1
:020000040000fa
:0400bc008c030000b1
:020000040000fa
:0400c0008c030000ad
:020000040000fa
:0400c4008c030000a9
:020000040000fa
:0400c8008c030000a5
:020000040000fa
:0400cc008c030000a1
:020000040000fa
:0400d0008c0300009d
:020000040000fa
:0400d4008c03000099
:020000040000fa
:0400d8008c03000095
:020000040000fa
:0400e4008c03000089
:020000040000fa
:0400e8008c03000085
:020000040000fa
:0400ec008c03000081
:020000040000fa
:0400f0008c0300007d
:020000040000fa
:0400f4008c03000079
:020000040000fa
:0400f8008c03000075
:020000040000fa
:0400fc008c03000071
:020000040000fa
:040100008c0300006c
:020000040000fa
:040104008c03000068
:020000040000fa
:040108008c03000064
:020000040000fa
:04010c008c03000060
:020000040000fa
:040110008c0300005c
:020000040000fa
:040114008c03000058
:020000040000fa
:040124008c03000048
:020000040000fa
:040128008c03000044
:020000040000fa
:040144008c03000028
:020000040000fa
:040148008c03000024
:020000040000fa
:04014c008c03000020
:020000040000fa
:040150008c0300001c
:020000040000fa
:040154008c03000018
:020000040000fa
:040158008c03000014
:020000040000fa
:04015c008c03000010
:020000040000fa
:04006c008c03000001
:020000040000fa
:040018008c03000055
:020000040000fa
:040030008c0300003d
:020000040000fa
:040040008c0300002d
:020000040000fa
:04008c008c030000e1
:020000040000fa
:040090008c030000dd
:020000040000fa
:04000c008c03000061
:020000040000fa
:0400dc008c03000091
:020000040000fa
:040120008c0300004c
:020000040000fa
:040008008c03000065
:020000040000fa
:040020008c0300004d
:020000040000fa
:040024008c03000049
:020000040000fa
:040068008c03000005
:020000040000fa
:04004c008c03000021
:020000040000fa
:040050008c0300001d
:020000040000fa
:0400a8008c030000c5
:020000040000fa
:0400ac008c030000c1
:020000040000fa
:040014008c03000059
:020000040000fa
:040034008c03000039
:020000040000fa
:040044008c03000029
:020000040000fa
:040048008c03000025
:020000040000fa
:040094008c030000d9
:020000040000fa
:040098008c030000d5
:020000040000fa
:04012c008c03000040
:020000040000fa
:040054008c03000019
:020000040000fa
:040058008c03000015
:020000040000fa
:040130008c0300003c
:020000040000fa
:0400a0008c030000cd
:020000040000fa
:0400a4008c030000c9
:020000040000fa
:080000000002040000000000f2
:020000040000fa
:100400008fb120008e5424000e01880000000000ef
:10041000000020000000e000020032000001200087
:100420002002880014000700820107000000e0009d
:1004300003003a00c014250001002000020037002c
:100440000000200001002000810f70000100320038
:1004500014000700000020000000e000020032004d
:100460000000020000000000184902000000000027
:100470000040da000000fe004440a90020162200df
:100480000000e0000300320000002000a00188000e
:100490004440a800000006008a1f78008b1f7800e7
:1004a0000000060091018800800478000000eb0045
:1004b0001a003700e284440032a0b4009905ba0063
:1004c000e284440032a0b4009906ba00e2844400f9
:1004d00032a0b4000006eb00476fde00fd07b2005b
:1004e000636ce10003003a00ebff07000000eb0043
:1004f0000a003700606ce10004003a00005deb0088
:100500008b05e900fdff3e00040037006168e10053
:10051000010032000086eb000b00070019c7ba008b
:100520001905ba000e04e00003003a000a00e000da
:10053000e0ff3a0000000600fe07b2009e018800be
:100540008a047800f5ff3700395dba008b05e900b1
:100550000c003200295dba008b05e900080032006a
:100560000c00e00003003a00e284440032a0b40032
:10057000f5ff370019ddba008b05e900faff3a00f4
:100580008904e800e184440032a0b40000000600c1
:1005900056120400000000004e0a04000000000093
:1005a00014060400000000003600f800809fbe0022
:1005b000829fbe00849fbe00869fbe00881f780079
:1005c00008088000500880000d48e2000900320051
:1005d00011e1a9000621ef0081ff2f00520c8000dd
:1005e000828060000120a000510c880011e1a80069
:1005f0000d68ef0041408000808f50000100310005
:100600008000780041408800b1428000808f500017
:100610000100360080007800b14288000008aa007e
:100620000008e20038003a00c03e820080007800f6
:10063000827d24000208e3000200350010408000a3
:100640006a0050001040880020408000810f500058
:1006500002003c0021408000ea80400021408800e8
:100660000200780046240700e04080008000e90096
:10067000e14088000000e0001b003200f0408000f4
:100680008000e900f14088000000e00001003a002d
:10069000c502a9008480a9000008800001418000f3
:1006a000810054007140880008418800080450000f
:1006b000884088009140800080408000810f500079
:1006c0000100310001007800904088004f0478005c
:1006d0004f03be004f02be004f01be004f00be00e0
:1006e0003600f90000400600301f2000e04088007e
:1006f000c502a80010c0b30006e8b700e000200063
:10070000f0408800e3ff3700803d820080007800e1
:10071000027b2400c7ff37000040da000000fe0023
:100720000a00fa0011002000b1bf9f00c0bf9f0067
:100730006a805700c70807004fb897000080fa008a
:10074000000006000a00fa00e20f500034003e00ec
:10075000c0428000e10f500003003200e20f500061
:1007600011003a000c003700032220000300e000d3
:1007700001003a000040da002002e20002003500e9
:100780002822ef0021e2a8002342ab000d003a002e
:100790002342a8000b003700032320000300e000e1
:1007a00001003a000040da003002e20002003500a9
:1007b0003822ef0031e2a8003342ab0001003a00da
:1007c0003342a800820178000b0037003102fb00a1
:1007d000e10f500004003a002322ab00feff3a0074
:1007e00024118800030037003322ab00feff3a00db
:1007f000a41188008301e9000300e000f3ff3a0040
:10080000e10f500003003a002302ab00feff32006c
:100810000b0037003302ab00feff32000800370048
:1008200033002000b3bf9f00c0bf9f00d1bf9f0017
:10083000e2bf9f006a805700880807006fb99700e1
:10084000020078000080fa0000000600001020007e
:100850003202b6000000e9004f00de000000060092
:1008600031e2a90097c0a90097e0a90087c0a900bc
:1008700087e0a9000000060087c0a90087e0a90062
:10088000e7006000c808dd00f28f2f0093058000ac
:1008900003016100028170009205880080007800e9
:1008a0000107b200c808dd00f2ff280093058000b0
:1008b00003016100028170009205880068016000f8
:1008c0004311de00610161004e11dd00b1048000c2
:1008d00001e0a10081007100b10488000008b200ad
:1008e0004700de00610060004f00dd00b1048000c1
:1008f00001f0a10081007000b10488000000060032
:10090000901180006140600000000600c211880064
:10091000801188009111880000000600801180007d
:1009200066006000e60f500003003200b011800046
:10093000f00fb20000000600b011800000000600b9
:1009400081118000e6806000e68f500001003200d7
:10095000f00fb200a0118800000006000000e000c7
:1009600014003200010278003202ab0009003a00a4
:100970000200e0000f0032008001eb003202ab0009
:1009800004003a008301e800830f5100fbff3e00a2
:100990000000060083118000e6816100e68f5100af
:1009a00005003200b3118000035a78000000e9000e
:1009b000edff3a0000000600b311800083187800b4
:1009c0000000e900e8ff3a00faff370081118000db
:1009d000e6806000e68f50000b0032009040780007
:1009e0000104e000120032003322ab00feff3a00a7
:1009f0008100fb00a1118800d04078000104e000d4
:100a0000f9ff3a0000000600900078000100e000c5
:100a1000fcff32003322ab00feff3a00a111880038
:100a2000d00078000100e000faff3a000000060064
:100a300000000600000005004f8ade0001f0a6005d
:100a4000030037008180ea000000ea00e0804800ef
:100a500002f0a600020037000201ea000400a20032
:100a600080017800110009008280d8008001fd001b
:100a7000110009004288d800830078000400a60015
:100a8000030037008180ea000000ea00e0804800af
:100a9000000006000000fa0068815700cfb89700f8
:100aa000804f800010007800570207000080fa0095
:100ab00000000600090137000000fa0068815700b5
:100ac000cfb89700804f8000100078004e020700da
:100ad0000080fa000000060072000700ca0007004c
:100ae000fe0007007a010700a2010700c902070003
:100af000740237000000fa0068815700cfb89700f1
:100b0000804f8000100078003f0207000080fa004c
:100b10000000060063000700bb0007006c0107002f
:100b200094010700ed000700ba02070065023700d4
:100b30000000fa0068815700cfb897004002070014
:100b40000080fa000000060056000700ae00070013
:100b50005f01070087010700e0000700ad02070002
:100b60005802370041ae200000003700881f78008f
:100b7000010478001002be006033b8000400be001b
:100b80000601be0008027800cc0407000000e00067
:100b900004003d00b0042000b05888000004eb00c1
:100ba000070037000000eb00000c98006033b8002d
:100bb000160c9800270c980020b12000300c9800eb
:100bc000080078004f0478000000060080017800db
:100bd00002003700b15978000201e9000200e0008c
:100be000fcff3a0000000600814f80009100780071
:100bf00037073700814f8000910078008706070093
:100c0000110020000000e00005003500804f80004a
:100c100090007800a00020002d070700cf00de0024
:100c20000100ea000000060000000600609f2000ae
:100c300000000600fdff0700a04f8800904f8800cd
:100c40000000060080007800040037003104e00056
:100c500002003a0000005100000006000101780087
:100c60000108a300f9ff3a00810178003101780002
:100c7000f4ef2f00020242000281ea00020162004a
:100c80000408280004016100f7ff320083007800a7
:100c9000010178003104e000fdff3a00000051003e
:100ca00000000600ec874700889fbe008a9fbe00b8
:100cb0008c9fbe008e1f780000067800010478002b
:100cc000180790002805900098067800cdb79f007f
:100cd000b80590003202be002203be000400be0030
:100ce0000601be004f18de006011b8008000eb0066
:100cf000d0b79f00e1b79f00f2b79f0083bf9f006e
:100d0000800478000900e000060032006000b800ae
:100d10006011b80004025000858258000603590093
:100d2000878359000e00e000020035000d10a1007d
:100d3000cdb79f000900e00005003a004fb09700d2
:100d40000028a30002003a000038a300020032008d
:100d50008a00e900010037008a007800f881570016
:100d6000a200200008007800860007000900e000cb
:100d700003003a00cfb097000128a300080032001a
:100d80000000e90000814500b1c2b3000900e000a5
:100d900001003200d1c2b3000149780005003700dc
:100da0000138a300030032000000e90001c2b300d3
:100db00081757800480190000201e90000015100ae
:100dc000808045004fb297008a0178000c007800bf
:100dd0005b0207009c0090000188a3000400320021
:100de00098009000810f500001003d000100780044
:100df0004f0778004f06be004f05be004f04be00ef
:100e0000cf00b100000006000200fa00889fbe007b
:100e10008a9fbe00800578000104780002007800f7
:100e2000180190002805900098007800b1bf9f003d
:100e3000b80490000200e000020035000110a1009b
:100e4000b1bf9f00ea815700820020008a0078002d
:100e50003002be002003be000800780049000700f1
:100e60003fb99700f0006100030032000000e90084
:100e700001c3b300817478003fb99700e8006100b6
:100e8000030032000000e90001c2b3008174780061
:100e9000480190000201e9000001510080804400f7
:100ea0003fba97008a0178000b00780024020700ff
:100eb0009b0090000188a30004003200980090007d
:100ec000810f500001003d00010078004f05be0079
:100ed0004f04be000080fa0000000600ea874700c9
:100ee000889fbe008a9fbe008e1f78000004780095
:100ef000030078007287570084e2260055c7260059
:100f0000049fbe00c3962200030f78006c87570031
:100f1000004feb0011059000a104900091057800ae
:100f20000200e000020032000207780001003700f2
:100f3000728757000000e00002003a000e007800bf
:100f400040ff07000a00e000030035008a0f500050
:100f5000010036000a0078000b0278008901780051
:100f6000000178008e00780008007800f401070086
:100f70004f0778004f05be004f04be00af00b10020
:100f800000000600f4874700889fbe008a9fbe00cd
:100f90008c9fbe008e1f78000605be000404be00b4
:100fa00081bf9f0082b79f00f3b79f00b000900001
:100fb000e1b79f001301780092b79f009006900060
:100fc000400090000000e900000678000d00e000fd
:100fd00001003d001d0020008040eb00efb19700b4
:100fe000817178001e0020001f0037000c06e90008
:100ff0000fb09700cf80de006109b900a0b79f0055
:10100000b1b79f00c2b79f00d3b79f000203be00d5
:101010000002be000800be000a01be009c070700d7
:10102000000778000e4078000043b000efb0970052
:1010300080707e008d06e9000fb997000201e9007b
:1010400082bf9f002fb29700bfb297004fb39700a7
:10105000dfb397000800be000a01be008507070045
:101060000205be000004be000c00e0000d003400cc
:10107000e00f5400e08f5c00e00f5d00e08f5d004a
:10108000daff3a000d00e000d8ff3c008fb997006e
:101090000300e000030034001fb097000018a30015
:1010a000d2ff3a000e00e00002003a00ffb09700c5
:1010b0001140a1000c0078004f0778004f06be00d9
:1010c0004f05be004f04be004f01b10000000600f6
:1010d0000200fa00889fbe008a9fbe0000057800cb
:1010e000010478000200780018019000a804900024
:1010f00098007800b1bf9f00b80590000200e000a2
:10110000020035000110a100b1bf9f00ea81570025
:10111000a2002000890078003002be002003be003b
:101120000800780097ff0700480190000201e900dd
:1011300000015100808045003fba97008901780086
:101140000a0078007e0107009a0090000188a30041
:101150000400320098009000810f500001003d0013
:10116000010078004f05be004f04be000080fa0069
:1011700000000600fa874700889fbe008a9fbe00d5
:101180008c9fbe008e1f78008004780001047800d8
:101190008205780018019000280590001807780053
:1011a000b80090000200e000020035000e10a1001f
:1011b000010037001200200070006700e0b79f00b8
:1011c000090032003b02be002b03be00e00f5200bc
:1011d000e08f5a00e00f5b00e08f5b0002003200fe
:1011e0008a86e900010037008a067800e802670075
:1011f000f5b79f00010032008d06e9003b02be00fa
:101200002b03be00e4af9f00f5af9f0086b79f00a1
:1012100097b79f00480690000c06e9000040eb00dd
:1012200080707e00efb297007fb29700890378004c
:1012300081047800d8af9f00020478008bbf9f0024
:101240008a057800034578002a0037000c06e9007b
:101250006fab97006f006300e90f500002003c0085
:101260000003b000010037007005b0000a03fb0066
:101270001604b100f90f53000c003e000003780083
:101280000650a0001606b100f90f530007003e00fb
:10129000b4b79f00a5b79f00c7b79f009e05070082
:1012a000cfb39700afb297003fb2970080747e0033
:1012b0000804e9008d06e9006fa89700ffa89700d1
:1012c0000fb197009fb19700460020008301d10025
:1012d0000281d3008180d3000080d3000603e9009f
:1012e000faff3a00e0af9f00f1af9f0082b79f0086
:1012f00093b79f00e10f56000f0034006fa89700ce
:10130000ffa897000fb197009fb19700e00f500022
:10131000e08f5800e00f5900e08f5900cbff3a00f2
:101320000800e000c9ff3c000d00e00002003400ae
:101330000e18a300c5ff3a0089007800f4b79f009b
:10134000870478005fac97008a4178000b0578002d
:101350008fbd97000500e000100032003b02be0088
:101360002b03be00e4af9f00f5af9f0086b79f0040
:1013700097b79f00e00f5200e08f5a00e00f5b002c
:10138000e08f5b00050032000c06e90083707e00f0
:101390000c06e90000c3b30080707e00ffb2970026
:1013a0000500e000030032000c06e90000c2b300b3
:1013b00080707e00480190000201e9000c0151009c
:1013c0008c8040000e0278008a01780009007800c5
:1013d000db000700990090000188a30004003200a0
:1013e00098009000810f500001003d00010078003e
:1013f0004f0778004f06be004f05be004f04be00e9
:10140000af01b100000006000200fa00881f78005a
:1014100000047800e2bf9f00648157000800780054
:1014200086020700980090000148a30001003200e6
:101430000080eb004f0478000080fa0000000600f6
:101440008201780001017800f1ff27003d05370097
:10145000889fbe0000047800480090008204780055
:10146000808f540001003600800478000901780064
:1014700058009000d5fd070058009000090040007a
:1014800050049800c80090008984500049049800d6
:101490000048eb004f04be0000000600100078007a
:1014a000a8fc3700900190000388a30001003200df
:1014b000e7ff37000348a30001003a00f7ff0700e9
:1014c0000000060084082000848f50001d003200b8
:1014d0000d003c0014082000848f500027003200cb
:1014e00002003c000408200004003700240820000b
:1014f000848f50003400320044082000848f500054
:1015000043003a0036003700040a2000848f500060
:101510002700320004003c0004092000848f5000a2
:101520003b003a0028003700020c2000828f500058
:101530002f003200020f2000828f500034003a004a
:101540002b0037009380e9000200e0000500320024
:10155000810978001102fb00cfa2de00612bb900e7
:101560002800370081097800114278000482fb00ce
:101570008002eb006033b8002200370013027800cd
:10158000e40052000200e00005003200810978000a
:101590001102be004fabde00860378001900370051
:1015a000810978001102be006033b80015003700d1
:1015b0009380e9008109780011027800cfa2de0053
:1015c000612bb9000f00370093027800e8805200c9
:1015d000810978003102be002103be0009003700f6
:1015e0009380e9000200e00002003200f1ff3700c2
:1015f0009380e90081097800110278008002eb00f5
:101600006033b8000498be000690be0010000500cc
:101610000000050044082000848f5000250032009f
:1016200008003c0014082000848f50001400320091
:1016300024082000848f5000240032000408200079
:101640000c00370004092000848f50001f00320076
:1016500004003c0084082000848f500024003a00dd
:101660000e003700040a2000848f50001100320061
:10167000040c2000848f50001d003a000d0037003c
:101680009380e900810978009100780001087800d2
:10169000cf91de008288be00140037009380e900fd
:1016a000810978009100780001087800824878006c
:1016b0000e0037009380e9008109780091007800de
:1016c0000108780082087800080037009380e9005c
:1016d0008109780091007800010878006112b90052
:1016e000612bb9008498be008690be0010000500f2
:1016f00000000500889fbe000004780048009000ac
:1017000082047800808f5400010036008004780045
:1017100009017800580090002cfd07005800900047
:101720000900400050049800c800900089845000cf
:10173000490498000048eb004f04be00000006007a
:10174000f2874700889fbe008a9fbe008c9fbe0024
:101750008e1f78008004780001057800020478006c
:10176000830578006107620002003a008b0f540085
:1017700008003900080178008a0078000900780024
:1017800048ff07008b0f54000200390088057800dd
:101790001e003700088655000c017800f00f560037
:1017a0000100360002012000010220007e80570067
:1017b000cc0307008c0678000500370002012000ea
:1017c000fe8057000900780036ff0700f0865600bb
:1017d000ef8f5600f9ff3e004461de0000ff2f004e
:1017e0000091b90002014600fe8057000900780010
:1017f0002cff07000e00e00004003a00080178000a
:101800008a0078000900780026ff07000b007800a6
:101810004f0778004f06be004f05be004f04be00c4
:101820002f01b100000006000000050000000500c7
:1018300000000500000178000040eb008080fb0004
:1018400081804000e3ac200063c278000404e00023
:1018500003003a00f0ac200060c0780000000600f1
:1018600092017800934f520004003a00f0ac20003f
:1018700060c078000309e800010037000040e8007c
:10188000ea4f5000edff360000000600f6874700e3
:10189000889fbe008a9fbe008c9fbe008e1f78006e
:1018a00000057800010478008305780004067800bc
:1018b0000000eb00c0b79f008080eb00d1b79f0015
:1018c000e0b79f00f2b79f000008200080bf9f0094
:1018d00098007800010078008004eb0001003700d8
:1018e0008904e800304178000204e000030032007f
:1018f00053c2b300834f5100f9ff3a000900e000e2
:1019000004003200090178000a007800e5fe0700b3
:10191000188c44001807780050c2b3009e4f100086
:101920003f013a000e07e8000e0c78001000370067
:10193000cfb097000100a0000b003700cfb0970098
:101940000110a00008003700cfb097000120a000d0
:1019500005003700cfb097000130a000020037002b
:10196000cfb097000140a000c1b79f00000ce80075
:101970001800780090407800b2c2b30082cf5000c7
:10198000f1ff320007003c0002c2b30082cf5000da
:10199000f0ff320032c2b30082cf500007003a009d
:1019a000efff3700d2c2b30082cf5000e0ff320019
:1019b00002c3b30082cf5000e0ff3200a2c2b300e6
:1019c00082cf50000d003a00000ce8001c80e900b6
:1019d000000e780010007800e0b79f000000e000e3
:1019e0000f003d00cfb097000100a200c1b79f00db
:1019f0000000ea00e0b79f0009003700e10207009d
:101a0000e0b79f0001003700000ce80018007800e4
:101a10009000fb000103b100e98f5000faff36008f
:101a20004fb097000008a300020032000010a10090
:101a3000c0b79f0018007800e1c2b30090cf10003b
:101a400016003a008000eb00d1b79f000000e800cc
:101a5000000c7800a1c2b30090cf100006003a003d
:101a6000000ce8001c80e900000e780010007800ef
:101a7000d0b79f0009003700c2020700d0b79f000f
:101a800001003700000ce800180078009000fb000f
:101a90000103b100e98f5000faff3600080078001a
:101aa00064ff070080467800180078001000fb00f3
:101ab0009203070091062000810f50003800320089
:101ac00012003c0041062000810f5000340032001b
:101ad0000a003c0011062000810f50002000320057
:101ae00031062000810f5000a0003200510220007a
:101af000810f5000bc003a00b4003700710620008e
:101b0000810f5000b8003c0088003700010720001a
:101b1000810f50005c00320007003c00e10620000d
:101b2000810f50007a003200f1062000810f500032
:101b3000ad003a003900370051072000810f5000f6
:101b40002700320081072000810f50004200320040
:101b500031072000810f5000a3003a008f003700aa
:101b60008d80fb000c01780000fe2f000f0040006c
:101b7000990307000000e000a80032001800780078
:101b8000000ce8009041780002fe2f000f01410098
:101b9000f88057000a00780024ff07000e00370085
:101ba0008d80fb008c0178001200200000fe2f00c9
:101bb0000f00400043fe07000000e00097003200e5
:101bc000180ce80002fe2f000f014100f8805700ba
:101bd0000a00780033fc070080844400900037003e
:101be0008d80fb008c0178000001eb0000fe2f00cf
:101bf0000f00400033fe07000000e00087003200c5
:101c0000180ce80002fe2f000f014100f880570079
:101c10000a0078002efd0700efff37008d80fb00e3
:101c20008c0178000001eb0000fe2f000f00400047
:101c300024fe07000000e00078003200180ce800e5
:101c400002fe2f000f014100f88057000a007800c3
:101c50006dfc0700e0ff37008d80fb008c017800f1
:101c60000001eb0000fe2f000f00400015fe0700f2
:101c70000000e0006900320018007800000ce80065
:101c8000904178001c0037008c0178000001eb00c7
:101c9000010f200000fe2f000f00400009fe07008a
:101ca0000000e0005d003200180ce8000fb0970063
:101cb0009fb097002fb19700bfb19700e00f500081
:101cc000e08f5800e00f5900e08f590009003a00fa
:101cd000cfb597006fb4970060ac2000d9fb070028
:101ce0000b027800880178000001780061ac2000c8
:101cf0004700370083c7b30002fe2f000f014100e9
:101d0000f88057000a0078001afd0700b2ff37007c
:101d10000b8144008d80fb008c01780000fe2f00b9
:101d20000f0040003bfe07003c0037008d80fb00a9
:101d30000c01780000fe2f000f0040002603070072
:101d40000000e0003500320018007800000ce800c8
:101d50009041780002fe2f000f014100f8805700eb
:101d60000a007800b1fe07009bff370000c8b300ef
:101d700080cf560029003a00180ce8001c80e900ca
:101d8000000e780010407800e0df9f001300200074
:101d9000e2fd2f000f0141000800370000c8b3002a
:101da00080cf56001d003a00180ce8001c80e900a6
:101db000000e78008001eb0010017800f8805700d9
:101dc0000a00780045fc070083ff370000c8b30015
:101dd00080cf560011003a00180ce8004fb297006f
:101de000efb19700080037000e0c78000000eb0000
:101df000c0b79f00e0b79f000080eb00d0b79f0006
:101e00000002eb008401780012002000c1ac200029
:101e10000a0078004afe07006fff3700180ce80040
:101e2000090078004f0778004f06be004f05be003e
:101e30004f04be006f01b100000006008200fa00ee
:101e4000889fbe008a1f7800000578008204780011
:101e5000c13f9f000004eb0010003700090278002a
:101e600088017800a2f72f000f01410081f72f00b1
:101e70008f8040000a00780084fe070008004000c0
:101e8000880f500004003d00b0042000b0588800c6
:101e90000084eb0004003700000478004f389700fe
:101ea0001004e000edff3a00080078004f057800cc
:101eb0004f04be000080fa00000006006f02b00070
:101ec000889fbe008a9fbe008c9fbe008e1f780038
:101ed000b0b79f00c1b79f00d2b79f00e3b79f0084
:101ee0000407780008002000092824001a0f2000a9
:101ef0000b00200008044000898448000a054900be
:101f00008b8549000086eb0004b02700d5312800fe
:101f1000261e2000070020000440e10005c8e10063
:101f200006d0e10007d8e1003a013e0008282a0067
:101f300039742c00faff2f00fbff2f00080440002b
:101f4000898448000a0549008b854900041825004a
:101f5000150020006033b8000800be000a01be0072
:101f6000cf030700b0b79f00c1b79f00d2b79f0053
:101f7000e3b79f0004182500150020006033b80067
:101f80000800be000a01be00f50307000004be0001
:101f9000e00f5000e08f580010003d0000182500b1
:101fa0001100200008044000898448003fb09700d9
:101fb000cfb097005fb19700efb19700610050007c
:101fc000e080580060015900e0815900b0b79f00df
:101fd000c1b79f00d2b79f00e3b79f003fb2970001
:101fe000cfb297005fb39700efb397006300420052
:101ff000e0804a0060014b00e0814b00740020004b
:10200000050020006033b800d50307008002780087
:10201000c5af9f000500e00002003d00e7824200de
:10202000c5af9f0014ab2300250020006033b8002b
:102030003fb09700cfb097005fb19700efb1970026
:1020400097030700f0af9f0081b79f0014ab2300f8
:10205000250020006033b8003fb09700cfb0970054
:102060005fb19700efb19700bd0307000006be0007
:10207000e00f5000e08f58000a003d0010ab230035
:10208000210020000c0640008d8648007fad97009f
:102090008fb5970061055500e0855d00faaf9f00a0
:1020a0008bb79f00c2ea2800030020000c00be008e
:1020b0006c0207000005be00e40f5000e08f5800de
:1020c00002003a003a0020000b00200042152700d1
:1020d000f3ff2f000a00be00c702070000064600fb
:1020e00081864e00525b2000030020000c00be00e1
:1020f0005c0207000002be00f90f5000e08f58009c
:1021000002003a008401200005002000b2a42f0044
:10211000f3ff2f000400be00f4b79f0085bf9f00af
:10212000b50207000001460081814e00b2b79f0052
:10213000c3b79f00d2162000030020003fb09700d5
:10214000cfb09700470207000006be007fb297009d
:102150008fba9700e40f5000e08f580002003a0059
:102160003c0020000d00200032e92f00f3ff2f007b
:102170000c00be00f4b79f0085bf9f009e020700c1
:102180003fb39700cfb397000003430081834b0018
:10219000d6af9f00e7af9f000000eb007fb2970033
:1021a0008fba9700e00f5600e08f5e0009003a00fa
:1021b00010002000e00f5200e08f5a0005003a00a6
:1021c0000a80750000f0a7000000ea000000e900a6
:1021d0004f00de00dfa89700b103b0008080400010
:1021e000b1af9f00c116200080804000bfab9700b8
:1021f000878f500004003d000080530031e92f001c
:1022000081004000b1af9f00920120000300200038
:102210000a00be00f4b79f0085bf9f00760207004a
:102220007fb297008fba9700040240008582480071
:102230004228dd00ce20de00810070004220dd005b
:102240000c0640008d8648000c02be004fabde003d
:1022500086037800f4a79f0085af9f0096af9f008c
:10226000a7af9f007fab97008fb397000600be001b
:102270004f89de008201780004192000050020004b
:102280006033b800640307007fa297008faa97000d
:102290001fab9700afab97000002420081824a005b
:1022a00002034b0083834b00b4b79f00c5b79f0068
:1022b000d6b79f00e7b79f00b0af20000005eb0046
:1022c0005fa99700efa997008a0078000300370004
:1022d00004015100858159008100e8005002fb0093
:1022e000cfa2de00820f5200838f5a00f8ff340025
:1022f000d2af9f00e3af9f0001057800e90f5500c2
:102300000d0034006c0555003fb09700cfb097002a
:102310005fb19700efb1970061004000e080480096
:1023200060014900e0814900b0b79f00c1b79f003c
:10233000d2b79f00e3b79f003fb29700cfb297009c
:102340005fb39700efb3970040062800010020001c
:102350006011b8000002420081824a0002034b0073
:1023600083834b00f4af9f0085b79f0096b79f0013
:10237000a7b79f000086eb00f0ff2f0001002000b0
:102380006011b8000020e10001a8e10002b0e10006
:1023900003b8e1001f003e003fb097004006b000c8
:1023a000500798008a80e80041079800dfa897004e
:1023b0000106e8003c0798004fa9970062079800c3
:1023c000bfa997007307980002e1200003002000d6
:1023d0000800be00a301070020079800c2032000e8
:1023e000030020000800be009e010700c203200079
:1023f00003002000de01070010079800c203200040
:10240000030020000800be00d9010700000f78007b
:102410000006eb000c0078004f0778004f06be0066
:102420004f05be004f04be006f02b1000000060061
:10243000889fbe000004be000000eb000800e00022
:1024400018003200180090000058a3000d00320060
:10245000d800900068009000808f5000090036007e
:10246000b80990000001eb008200780008007800b5
:1024700003000100d80090000080eb000100e000a4
:10248000080032000000eb00200c98006004980067
:10249000500498000900e0000200320018007800a3
:1024a0009ff807004f04be0000000600889fbe0092
:1024b0000004be000000eb000800e0002500320030
:1024c000180090000058a30011003200d8009000be
:1024d00068009000808f500009003600b809900015
:1024e0000001eb0082007800080078000300010082
:1024f000d80090000080eb000100e00015003200e1
:102500000000eb00200c9800600498005004980034
:10251000780a900008109000800f520006003100e9
:102520000002520011002000cfa2de00612bb90092
:1025300018007800650007000000eb000014980008
:10254000700c98000900e0000200320018007800ca
:1025500073f807004f04be000000060080007800fa
:102560001000200002022000828f50000400320080
:10257000e9805000e48f5000010036000000eb00bd
:1025800000000600889fbe008a1f780000057800c2
:102590000a047800984478000805e8000900fb0068
:1025a000eeff07000000e000f9ff3a00b0c2b30000
:1025b00080cf540005003200d0c2b3008000eb0091
:1025c00080cf540005003a00020037008000eb0085
:1025d00001003700110020000804e8000000eb00b3
:1025e000030037006a02b900020052000003b00085
:1025f0003801fb0003fd2f0082814100e98f51006b
:10260000f8ff36000100e00001003a000000ea0097
:102610004f0578004f04be0000000600889fbe00f2
:102620008a1f78008004780001057800090078008e
:1026300084f90700000478008a0178000801780016
:1026400011002000090078000a00070080007800cf
:102650000080eb00888f500001003a000000eb0082
:102660004f0578004f04be000000060010007800ff
:1026700034f83700889fbe008a9fbe00810478002e
:102680000204780009c5b9000900e00001003a0021
:102690000004eb000a017800800078000300780055
:1026a0007efb0700800078008a8f50000300320014
:1026b000110009008980d800000478000800780023
:1026c0004f05be004f04be0000000600a0fd2f0015
:1026d000f1ff2f007f0007004f89de0082017800a4
:1026e00000000600889fbe008a9fbe00800478001c
:1026f0000200e0005b00320001407800814c78006d
:1027000082814400f1f99f00e20f5100550036002c
:1027100091449800a1449800e1f99f00d1f99f00ed
:10272000e60f51004f003600b1449800c1f99f00f8
:10273000e80f51004b0036000905ea00630565000b
:102740000a8444000a055100c1ff2f0001056500fd
:102750000080fb008000eb0012102000131020000e
:1027600025010700008cbe000a01440060b99f00eb
:1027700071b99f00e80f55003a0036002004980018
:1027800031049800400498005104980020b99f003b
:1027900031b99f0040b99f0051b99f00f80f550013
:1027a000300036006004980071049800000c980016
:1027b000110c9800200c9800310c9800400c9800e7
:1027c000510c980020b19f0031b19f0040b19f0093
:1027d00051b19f0060b19f0071b19f0000b99f008f
:1027e00011b99f00640164007801410002044400b3
:1027f000020555006011b8000203be000002be00d1
:102800000403be006022b8000000720081807200e4
:10281000020173008381730010003700009cbe002a
:102820000294be004004980051049800620498008d
:1028300073049800000c9800110c9800220c98006a
:10284000330c9800400c9800510c9800620c9800d2
:10285000730c98000a02b1000802b000ff0f550087
:10286000eeff3e00090078004f05be004f04be0099
:10287000000006000200fa0081017800e0ff9f00de
:10288000930090000188a30005003200d30090005f
:10289000805878000080fb00d10198000a003700c2
:1028a000120020008f80e90003007800fbfa070087
:1028b000800078000080eb000100e00002003200a0
:1028c000eff897000180fb000080fa00000006008e
:1028d000e8ff370002002f00f3ff2f00820f5000a7
:1028e000838f5800040036000000ea00b0588800ca
:1028f0000080eb008080eb0000000600f1fb2f0061
:1029000080804000f98f500001003e000050a00080
:1029100000000600f9ff3700f1f92f008080400029
:10292000f98f500001003e00f005b20000000600e3
:10293000f9ff370000000600bef80700fdff0700a2
:10294000fcff3700f28747008e1f780002027800f4
:10295000030178000000e000020032000007780068
:1029600001003700728757008002eb000100e00091
:10297000010032008102e900708057000600090062
:102980000018eb000080eb0080bf9f0023102000a8
:1029900093bf9f00aebf9f00b1bf9f00c5bf9f0008
:1029a0000100e00003003d00b1042000b1588800a0
:1029b00006003700004feb00eebf9f00debf9f0018
:1029c00084007800708057008ffa07004f07780066
:1029d0002f01b10000000600881f78000004780075
:1029e00000082000808f50001700350010082000dc
:1029f000808f50000b00340030082000808f500082
:102a000011003a00920078006880500000097800b8
:102a10003002be002003be00049cbe000694be002f
:102a200007003700920278006480520000097800a5
:102a30001000be001a000700009cbe000294be00f9
:102a400010002000010037000000eb004f04780068
:102a50000000060000c0da000000060000c0da0036
:102a600000000600839f68000100e00002003d00b6
:102a700060001000e08018000300e00002003d004c
:102a800060011100e0811900480007004f00e000dc
:102a900002003b0060001000e0801800000006000b
:102aa000810378001d0007000001be006000b8002f
:102ab0000478a30013003a006220e10015003e00f4
:102ac0000d0039008301d1000281d3008180d30041
:102ad0008301d1000281d3008180d3008301d10022
:102ae0000281d3008180d3000538b000c42add0004
:102af000f300b2008381720007f0a70003f0a0008a
:102b00000000060083ff2700020020006110b900ca
:102b1000f9ff370003ff2700f7ff3700c70ade0081
:102b2000f107b200f50fb20008003200e1cf420019
:102b3000020032000170a00024000500810f700027
:102b4000010032000408050044000500810f7000f8
:102b500002003a00140005008502e9000000400070
:102b600081c04800fcff3b000170a000240005006c
:102b7000811f78000100e00002003d0060001000ad
:102b8000e08018000300e00002003d006001110039
:102b9000e0811900150007004f00e00002003b0033
:102ba00060001000e0801800000006006022b800fd
:102bb000060220000000d0008180d2000482d200f2
:102bc0008582d2000000a0000202520083825a00d7
:102bd000030031000202420083824a000000a1008b
:102be0000603e900f3ff3a0000000600efff0700cc
:102bf0000400be0000000600020ab900001bb90074
:102c00000200b8008100420081004300000006007d
:102c1000889fbe008a9fbe0030044200b0844a00f4
:102c200030054b0090854b006000b1000898be0055
:102c30000a90be000440e10005c8e10006d0e100b2
:102c400007d8e10002003100680040001008e800e9
:102c50004f05be004f04be0000000600889fbe0066
:102c60008a9fbe003004be002005be000418540038
:102c700005985c0006185d0007985d0011002000b3
:102c80000440e10005c8e10006d0e10007d8e100fa
:102c9000010039008000eb00108810004f05be00d5
:102ca0004f04be00000006001200fa00889fbe001c
:102cb0008a9fbe008c9fbe00e0b79f00f1b79f00c7
:102cc00082bf9f0093bf9f000605be000404be00a4
:102cd0000000eb00d0b79f00c0b79f00b0b79f00c7
:102ce000a0b79f0090b79f00000678005fb19700e3
:102cf000cfb09700820141003fb097000200e00092
:102d000004003d00370007007e805700c0ff070029
:102d100003003700330007007e805700cfff070015
:102d2000dfb697000d00e0000c0035006fb2970091
:102d3000ffb297000fbb97009fbb970010002000c9
:102d4000010020006011b800000272008182720050
:102d500002037300838373001b0007000c06e80066
:102d600001042000810f5600e0ff3a000d00e00052
:102d700004003d000802be000a03be007e8057002a
:102d8000a3ff07005fa897000000e00005003a00dd
:102d90001fb29700afb297003fb39700cfb3970031
:102da000090007006fb09700ffb097000fb99700b8
:102db0009fb997004f06be004f05be004f04be00ee
:102dc0000080fa0000000600010007000000060075
:102dd000a4b79f00b5b79f00c6b79f00d7b79f00a5
:102de000000006004f09de0082817100b3b79f002a
:102df0004f01de008180400082807000a1b79f00fb
:102e00008fb097004f09de00000040000200700004
:102e100090b79f007fa897004f01de00818040009f
:102e20008280700081b79f000d0007004f3ade00de
:102e30000000400004007000f0af9f000800070091
:102e40000402420085824a0006034b0087834b0040
:102e5000dfff07000802be000a03be0000000600f4
:102e60002fb29700bfb297004fb39700dfb3970020
:102e700000000600881f780018002000881f7800d6
:102e800089ff07008f87e9004f04780000000600e3
:102e9000801feb0084ff07008f87e9000000060019
:102ea000889fbe008a9fbe00e00f5000e08f580050
:102eb000e00f5900e08f59000c003d006044b8005d
:102ec0006055b8000000540081805c0002015d0084
:102ed00083815d00180020001500070008003d00f8
:102ee000180007000004eb00050037000004eb00a9
:102ef0000f00070002003d0012000700180020002c
:102f0000dcff07000800e000060032006022b80085
:102f10006033b8000000520081805a0002015b005b
:102f200083815b004f05be004f04be000000060019
:102f3000e00f5200e08f5a00e00f5b00e08f5b0073
:102f4000000006006044b8006055b8000402540058
:102f500085825c0006035d0087835d00000006003b
:102f6000889fbe008a9fbe008c1f7800e00f500033
:102f7000e08f5800e00f5900e08f59000d003d0030
:102f80006044b8006055b8000000540081805c00c7
:102f900002015d0083815d001c0020000820e1002b
:102fa00009a8e1000ab0e1000bb8e1000d003d0006
:102fb000080037000006eb00e00f5200e08f5a00d7
:102fc000e00f5b00e08f5b0006003d006044b8004e
:102fd0006055b8000402540085825c0006035d0061
:102fe00087835d00aaff07000c00e00006003200a6
:102ff0006022b8006033b8000000520081805a009f
:1030000002015b0083815b004f0678004f05be0024
:103010004f04be0000000600889fbe008a9fbe00cd
:103020008c1f78000006eb00e00f5000e08f580086
:10303000e00f5900e08f590007003d006044b800e0
:103040006055b8000000540081805c0002015d0002
:1030500083815d001c002000e00f5200e08f5a00c9
:10306000e00f5b00e08f5b0007003d006044b800ac
:103070006055b8000402540085825c0006035d00c0
:1030800087835d000c00a2000c0007000c00e0002c
:10309000060032006022b8006033b8000000520021
:1030a00081805a0002015b0083815b004f0678003b
:1030b0004f05be004f04be0000000600889fbe0002
:1030c0008a9fbe008c9fbe000404b8000506b800ad
:1030d0008904460060854e000606b8000a054600d1
:1030e000e0854e000706b8008b054600040eb800c8
:1030f000890446000a854e00e0854d00050eb800a3
:103100000a0546008b854e00060eb8008b0546006a
:103110000416b8000a0546008b854e000516b80057
:103120008b054600041eb8008b0546000800be0053
:103130000a01be004f06be004f05be004f04be0090
:043140000000060085
:020000040000fa
:0200000401f009
:04000000ffffff00ff
:020000040000fa
:0200000401f009
:04000400ffffff00fb
:020000040000fa
:0200000401f009
:04000800ffffff00f7
:020000040000fa
:0200000401f009
:04002c00efff0000e2
:020000040000fa
:0200000401f009
:04002800beff000017
:020000040000fa
:0200000401f009
:04002400adff00002c
:020000040000fa
:0200000401f009
:04002000deff0000ff
:020000040000fa
:0200000401f009
:04001c00dfff000002
:020000040000fa
:0200000401f009
:04001800f0000000f4
:020000040000fa
:0200000401f009
:040014005b0000008d
:020000040000fa
:0200000401f009
:0400100046000000a6
:020000040000fa
:0200000401f009
:04000c008000000070
:020000040000fa
:04003800d4020000ee
:020000040000fa
:10314400546900006d650000642000006f75000084
:103154007400000072610000646900006f50000098
:103164006f77000065720000557000002058000061
:103174004f530000434500004e2000003d20000056
:1031840025300000327800000a0000005061000081
:1031940074630000686900006e670000204400004a
:1031a400535000002e2e00002e000000646f00001b
:1031b4006e650000210000007369000034370000d0
:1031c400333500005f730000657400005353000042
:1031d40042200000002e00002e2e0000204f000090
:1031e4004b0d0000005200005820000073740000d2
:1031f40061720000740000000d0a00000d00000060
:1032040063610000702000003d2000002564000080
:103214000d0a000000630000757200007265000072
:103224006e7400005271000073530000746100005a
:1032340074750000732e0000726500007370000046
:103244002e52000053530000492000003d2000008e
:10325400256400000d0a0000006300007572000080
:10326400726500006e740000527100007353000018
:103274007461000074750000732e00007265000014
:10328400737000002e5300004e52000020200000f6
:103294003d200000256400000d0a0000000000002d
:1032a40000000000800000007301000076010000af
:1032b400780100007a0100007c0100007f01000019
:1032c40081010000840100008601000088010000e3
:1032d4008a0100008c0100008e01000090010000b2
:1032e40092010000940100005102000068020000f5
:1032f4008a02000095020000f50200006503000048
:103304006803000093030000ae030000b103000053
:10331400b4030000d9030000e2030000e703000047
:10332400ea030000ec030000ef030000f2030000d6
:10333400f5030000f7030000fb030000fe03000098
:1033440010040000270400002d04000032040000d3
:103354003404000036040000390400003c0400007a
:103364004004000043040000450400004904000038
:103374004b0400004e040000500400000003000051
:10338400740b0000d4840000606f0000ae6c000079
:10339400f9bb000084a2000065b100004bf60000f8
:1033a400720100001a210000e85a0000d8d600007b
:1033b400047300005e2c0000226e0000c4e90000cb
:1033c400b58b0000819a00001ee4000087c900004c
:1033d4009e7b0000175200006dad0000e3e5000085
:1033e4008b040000a72e0000996a000032aa000096
:1033f40099970000cca600005b15000079560000e8
:103404004801000063b10000df54000027060000fb
:1034140057060000538c0000a6270000aa6600008f
:1034240089030000185100007efb000067d30000f0
:10343400cedd00003ffd00003d1f0000478400007a
:1034440001f30000856e0000f83b0000792b0000ba
:103454000c9000004b670000467d0000548800007b
:10346400fdd6000012e50000e7480000f20e00005f
:10347400db9900004d710000a540000068d90000f0
:10348400c959000039e40000752000001ce900005f
:10349400b1f50000013c000019bb000060f700001a
:1034a400fa6b00001e6800009f190000b6ed0000d2
:1034b400140f000056bc0000c1340000cb00000013
:1034c4009d430000d40f0000f36200009c9d0000a7
:1034d400f78b00009d5300003a8d00002f3d000043
:1034e400de3d000038310000039b0000c7c100002e
:1034f40059e90000d1750000888d0000365800009d
:10350400867000004e5b00009ed00000dbcb000004
:10351400f7ea00001fdb0000a53b0000b3bd00007c
:103524006bbc0000f370000065d50000170f0000ad
:103534006415000024200000d5b800007b0d0000b5
:1035440027290000858800001f580000225700002a
:103554004f090000c04d0000d6e40000c6b50000cd
:103564003a37000033270000bb6a000014690000ea
:10357400031b0000eda80000c3430000e8ea0000bc
:10358400de41000006250000c5c800003cbf000065
:1035940032b20000a7dd000022c20000e9ca000028
:1035a40084f20000c02600007c78000001f70000cf
:1035b400d5c6000005330000e4c2000078ec00002a
:1035c4001bfd0000d25000007d11000029570000af
:1035d40099b00000f155000066740000b458000072
:1035e40023a000006f2e0000d89b000008b3000049
:1035f4003e530000cf5e0000cc7a0000df4e000096
:10360400ed420000166a000091880000431b000090
:103614001d8400005c520000216600005824000054
:1036240036710000c56a00000d2c0000869a000067
:10363400239d0000e035000043c900007f410000e5
:10364400bd82000099ed00007a260000b2d300008c
:10365400a6ce00004f000000e6870000e3d700007c
:103664006828000086f70000ced20000b3d3000023
:103674001b04000002b9000078b30000ade00000b4
:103684003c530000a68a00004a220000be1f00002e
:10369400ceb1000076f200002f810000a8c1000026
:1036a40078720000b015000065190000e3320000d4
:1036b400a74d00000cd3000000b90000c327000090
:1036c400be7400004dd10000e10c000036dd0000a6
:1036d40023fb0000a7220000d3440000cab300006b
:1036e400081b0000b40d00004bdf00001aa6000008
:1036f40090320000925c00001aa70000cd85000003
:103704002e35000011720000f8210000357d000004
:103714003fdb0000298d000030b300004f4500005e
:1037240014770000cf9900002fa3000090810000bf
:10373400b0ae0000e8450000e63a0000a9a200008f
:1037440062b70000dbbe000025390000a5fc0000c4
:10375400eac50000bc3a0000ec900000aea60000f0
:10376400fb120000aac7000062220000afa90000fb
:1037740084b9000064b80000fb8d0000c11c000087
:10378400c3d00000876d00005cb40000fe3f000061
:10379400a4b80000d8890000f401000059bb00005f
:1037a40004a50000434400001acb0000413000008f
:1037b400f75b00009aee000028f400004c71000052
:1037c40099ca00004b7f00002a130000f04b000050
:1037d40054b30000fc900000edbe0000483f000020
:1037e400f15e00000da10000bb1e00005916000090
:1037f40015f000004b5000004c960000861b0000a2
:10380400a9cc0000c26900004e10000003f00000c3
:10381400e9530000e5e20000bb450000e28d000032
:10382400ae40000071080000864d000008f400005e
:10383400969000005853000040a500008b5b0000e8
:103844003cad000047b50000d7e200006a13000059
:1038540078d40000dcc90000ec0e000093f00000f6
:10386400c01d00009536000076a4000053850000ba
:10387400c9ac0000e47100008daf00006861000075
:10388400209d0000ff450000356e000004d80000b4
:1038940027320000c3da0000eea200006604000034
:1038a400b7210000065200007f3900008ffd0000a0
:1038b400ee90000074b600004fb60000240e000025
:1038c40012480000f0b2000030f20000a54c0000e5
:1038d40091520000e3c60000487b000038960000c7
:1038e400239e0000d71b0000951500003ac9000074
:1038f4008b6f0000637d00001dc90000ea96000084
:10390400e6010000d7850000c0ea00003dca0000bf
:10391400d3b70000fb070000543a00000031000058
:103924003d740000e41200005ba200003833000084
:103934005bbf00001ddc00004ee8000085100000a5
:1039440077ab0000ea65000079b00000aa300000ff
:1039540061c60000f63b0000cc950000fc8300002b
:103964007f8c00007bb5000052050000ebf70000df
:1039740021de000089b600006dee00003177000002
:1039840013aa000093550000960800006e1c000066
:1039940082b500007e950000b9940000dd68000047
:1039a400425c00003a000000c37b00006f6000002e
:1039b4006a2c000007d700006c820000fbb20000f4
:1039c4008125000069d60000720a0000d2e80000d8
:1039d40050050000884900001b6300007299000034
:1039e4006ce300007aae0000b01b00009ed400001f
:1039f40025540000258a00009017000097df00007e
:103a040039b800007cea0000f0820000dd250000e7
:103a1400d2ad0000e7f600003623000084a90000c0
:103a2400c96a000053f40000822c00001dea000063
:103a340006c600004f70000054370000802a0000c2
:103a44006b630000dbcc000086e600008c7f000086
:103a5400278c000072540000739e00001bd60000e7
:103a64004cfa00000582000080d70000b711000066
:103a740098000000000000000000000000060000a4
:103a840098690000151c0000fc8600008774000083
:103a9400845b0000d40f0000dbd7000027c50000c2
:103aa4004ab200008f2900007a4a0000230a00006d
:103ab400b8070000d0340000708100008e5300006d
:103ac400ef430000163f0000a8a700009e5a000024
:103ad40077c0000091b7000089150000524800002b
:103ae400c0b7000062ab0000e17400006410000085
:103af400aa0900006b9700007421000079350000ca
:103b0400a197000025fc000078c10000ec6e0000c5
:103b140087770000408700001a740000828100004b
:103b240056dd0000ec370000adaf000003310000ab
:103b3400ac47000085740000c02a0000459d0000c9
:103b4400f41200000cf9000086b000004a160000d0
:103b5400d81100006c460000c44a000067980000b9
:103b64008b1b000042c20000bebb00000e480000d8
:103b740084f7000008a60000c38f00008e8d0000ab
:103b8400abc200009b5d00005c6000002857000091
:103b94008f0e0000ad2e0000c15e000095290000cc
:103ba4009af400008a270000d4410000bb4a0000b8
:103bb400ac5d0000b293000026fd00008781000088
:103bc4003f27000035a60000422c000015380000f5
:103bd400adf80000026f000094da000008ee000067
:103be40019d8000090fa000089c30000ad890000d4
:103bf400fec6000002460000811d00000c8d00007e
:103c0400782f0000eed30000ed6c00007b950000df
:103c14004956000087f40000e2630000da3900002e
:103c2400ce68000016180000ed980000ee86000033
:103c3400f3b30000c11200001a5100009b570000aa
:103c44001d1900009e9800007ed20000fd3d00007a
:103c54002b59000015460000745700007914000029
:103c64008171000089d9000022dd0000921000005b
:103c7400d989000091df0000670000006e53000046
:103c8400afda0000b5280000301e000047e600004f
:103c9400b70500002d220000cf7f00006acd000090
:103ca400889000006b8c0000163600008807000026
:103cb400a1b70000aff3000031c40000db760000c0
:103cc4008b9600009ef0000017a700003f840000c0
:103cd40078910000a8cd00003f8f0000a5dd000012
:103ce40052140000f93900005d0b0000568e0000ec
:103cf4001c5a00005b890000ee8000009e33000027
:103d0400bdb10000451500004234000059780000a0
:103d140020fc00002ddb0000c92e00000f35000040
:103d240026cf0000239b00003e1d00009f0f0000d3
:103d3400260e0000b7b500004eac0000a2860000bd
:103d4400d5da0000360400005a730000466a000009
:103d540088c500002aa0000083e800008b5f0000f3
:103d64003caf00006a4400004e7500009b8f0000c9
:103d74009337000035380000bd0200009a1d000092
:103d8400842900006425000097e000007c2a0000dc
:103d9400b6cb0000c1660000513c0000bc3b0000f3
:103da400f35500002bb70000bd810000ecf30000c8
:103db40049d50000f8030000e0bd0000c60c000077
:103dc400eec0000019080000fb4f00008c940000b6
:103dd400080e0000a530000037f00000b8180000fd
:103de4009373000000bb000052520000b49800001e
:103df4000d4b000045b90000890a000034e90000b9
:103e04001c2400005a8f0000a89d0000c2d90000a5
:103e140027a90000eebf0000c080000090bc000095
:103e24002a93000043fb00000ab3000096d100006f
:103e3400ae1300004101000068b900002c530000db
:103e4400537c000000a5000084410000d6980000c7
:103e540088980000fede0000f7e20000374300000f
:103e6400620e000093830000ee0300000a8d000040
:103e7400ca870000593600006f610000f7f40000a3
:103e8400d6ab00008b0f00009c83000096a40000ba
:103e94006c460000438000006bea000050dc000028
:103ea400d8ce0000d4f40000ae5b0000c6010000d0
:103eb40043850000718d00000c3900005ee40000b1
:103ec4003b2b0000c4880000b2c5000054960000db
:103ed4000e8700009a50000093d600009c910000c9
:103ee400ca090000648b000023c4000029440000b8
:103ef4001a670000e1da0000c71b00002517000064
:103f0400022c00008f2a0000133a0000cfd60000d4
:103f1400653100002b100000f5b5000096df0000ad
:103f2400019900007bad0000d6b40000c03500004c
:103f3400a3480000e3b000009efe00003310000020
:103f44001a090000ae3c00000aa10000728f0000b4
:103f540000510000e178000023f50000e2bf0000fa
:103f6400a646000028b300004b240000b1a10000c5
:103f7400deb10000c44800006fed00005ad4000018
:103f840061f00000dbe10000085c000064c0000098
:103f9400cae90000a9de0000deec0000c0680000f1
:103fa4005b6d0000bd430000828c0000ca69000004
:103fb400b1a90000c87100000d5d00006da50000ee
:103fc400ab1a000067940000ee05000093e30000c4
:103fd4003fe800001ae600000f7f000079f20000bd
:103fe400cbc5000037570000dffc00004fb40000d1
:103ff40060c70000973c000061b000000c46000060
:1040040064f4000043920000d2a50000f0f3000025
:10401400b7df0000ab200000b1f50000302a00003b
:10402400b3dc00004b390000b78500003e1e0000e1
:104034001b9400008c2600002880000045d6000058
:1040440001360000d0ec00009346000088d3000045
:10405400d58900005d7a0000822100003ec2000084
:1040640040e30000b4de0000f5a5000069d50000bf
:10407400694900005c890000cdae000013700000a7
:1040840070ed0000690c0000ecc60000fe75000035
:10409400eb4e0000d6b30000c8600000fb34000003
:1040a4001ef8000064920000d9290000a813000043
:1040b400383d000079c40000bf210000379d000096
:1040c400e34f000021e500003f2c00005c5f00008e
:1040d40041ff00001487000091e00000820400000a
:1040e4000b1e000055530000dc56000040a40000e5
:1040f40035780000e29b0000492200002e090000f0
:10410400cd1f00006f94000083ee0000ea8b0000d6
:10411400c4c2000010e0000080d90000a55f0000c8
:10412400533400009c8c0000ea9500006487000072
:1041340094d60000321c0000eb930000bfe30000a3
:1041440055830000c2f60000fcc8000085b20000e0
:10415400945c0000425f00006b8e00003b970000ff
:10416400797400007ee300005cc20000631a000062
:1041740022b100007f940000cbe70000b7ff0000ed
:104184000e37000095af00001053000017880000a0
:1041940012720000ddcb0000ab4b00006b68000026
:1041a40024ac0000c95c0000720900004ff100005b
:1041b400fb1d0000e7a2000030e90000204b0000d6
:1041c400da7000007c9e0000e2340000eb6a00001c
:1041d40035c2000033d700009d070000b1ef000096
:1041e400f6750000f5fd0000adc700004bd00000df
:1041f400b7dd0000ae1e00008d1e0000c0390000b7
:104204009ca700001cc50000cc39000050c600006b
:104214006bc60000da370000c7e1000020eb0000a5
:1042240074a500003dc0000008fa0000c2df0000d1
:10423400f29e0000432b0000f0770000504900007c
:104244008cc300002f680000f32a00009b83000049
:104254001adc000005d80000b77c00003c610000b7
:1042640011760000ec2d0000fe8600000887000097
:1042740015a30000c01c0000b46a00008d9e00005d
:10428400bf9a0000d5c800005b05000018100000ac
:1042940015fb0000c63c0000eec50000524b0000b8
:1042a4003136000007b900004c810000ea830000a9
:1042b400d7820000fefc0000435900004e2000009d
:1042c400bdd3000065cf00001f5c0000711f00001b
:1042d400bf260000ec440000eb01000074820000e3
:1042e4003c8e000060df00004790000031170000a2
:1042f4007e160000c0ec00001ec300003a7a0000e5
:1043040059210000a29b00008e87000025d30000e5
:10431400fe850000dd6d0000e6d80000ca740000d0
:10432400badb000042300000963d00008622000007
:10433400866f0000de3700001a9300002f03000090
:104344002ee100006e16000062c10000e12d0000a5
:10435400fecb0000a8df000064050000ef2300008e
:10436400bc710000617b00001b600000222700007c
:10437400bdc60000a372000007aa000009b0000037
:1043840052f20000191500004dbe0000af260000d7
:104394003b4d000062a600003c410000077a00008b
:1043a400342500003cd60000cdb60000554700007f
:1043b400871e0000cbcf0000ced200000d95000078
:1043c400c0d8000072a60000e033000024260000dc
:1043d400517e000071c70000533f0000d467000005
:1043e40073520000cb7800005a0000001115000041
:1043f400715f00008d3c0000cf400000cdd900006b
:1044040074300000d9a100003fc6000058bc000071
:10441400be780000183100009a39000060bb00002b
:104424008d7b000034950000a5f10000543b000092
:10443400b985000099af0000c4450000eb6400009a
:10444400a76e000059600000eb1e00007afb00001c
:10445400fd92000043230000f1270000ac66000039
:1044640012660000288a00005cf60000c63f0000c7
:1044740076040000e809000027ed000005aa00000a
:1044840026e50000b4ad000040ba0000f7f40000d7
:1044940084cb00007f070000108d0000b6c7000029
:1044a400d4770000eaba0000962a000098f00000d1
:1044b40056d70000ff5000004d590000793d000020
:1044c40041e00000faa900009d3e0000a6d90000ca
:1044d40079c800000dd1000056c50000add700001a
:1044e400fb7000003cbd0000f3e900005d1c00000f
:1044f40053930000331d0000f81b0000ee9f0000e2
:10450400b7500000ac8f00004859000061c900009a
:10451400859e0000c8b00000d274000039df00009e
:1045240033f5000028e0000063110000a7c4000078
:1045340005bd00003ad9000034ca0000f9aa000001
:10454400e2000000e6e60000385700003eec000000
:10455400197c00000d27000045c5000052c400006e
:10456400fff4000069c50000f5730000734f0000fc
:10457400e3070000c7cf0000382300005b9c000065
:1045840099a200006a720000b035000039c1000031
:104594000ac700001c1a000030600000181d00004b
:1045a4002bf00000c8f1000079a3000094e30000a0
:1045b40036350000936900000591000007120000e1
:1045c40060440000fdb60000c6ff0000e0cf00001c
:1045d400a2cf0000c2a3000058ac000032e30000e8
:1045e4002eec00000d9d00001bfb000005400000a8
:1045f400ba6700008ecb000038d70000609c000032
:10460400fe9e0000a1700000cc400000728c0000ef
:104614008c50000071850000dd840000925c000075
:10462400ee440000b6e000008015000032dd00001a
:104634001b4b00008c6e00008e39000097a5000013
:10464400afc60000f429000085d300008593000064
:1046540085c8000054e40000591d00004ea000006d
:10466400fec5000007c10000f732000052f9000047
:104674004d45000085fc0000a0fa000037b500009d
:104684009d470000e8520000238d0000928700003f
:1046940043b40000b84f0000951b00001e4f0000fb
:1046a400e5450000bfce0000c80c0000b27d00004c
:1046b400e7d900002e880000b72a000061e100005d
:1046c4002dc40000212e0000b84d0000fd21000083
:1046d4008730000025110000ec1f00002994000021
:1046e40031d200009285000038170000da63000020
:1046f4004d8c0000b406000055640000b76c000047
:10470400fcc200008d5d00009786000009d3000004
:1047140043690000e835000077cc0000af91000049
:10472400363c00007ca300006e4e00004aa200004c
:10473400c941000050ea0000abdf0000870400001c
:10474400704f000016f50000a0380000f56000006e
:1047540016cd00000ce50000c7e30000ad0000002a
:10476400126b0000128500003c5c00007f760000a4
:10477400ed490000f29d00008fdf0000abe1000076
:10478400dd87000001ed00002c1b00004b550000ec
:10479400117f0000c3920000d3910000c1d8000033
:1047a400a7370000c7e500005b4800002bed0000c0
:1047b40031de0000cefb0000950000000000000088
:1047c400000000000000000000080000e3510000a9
:1047d400840000000b4d000026730000118b0000c4
:1047e4001ee20000000000000000000000000000c5
:1047f400000000000404000073e0000072ff0000e9
:10480400e6590000c900000000000000000000009c
:1048140004480000bfab0000f3990000877c00004f
:1048240007000000000000000000000004fb00007e
:1048340033b100006361000061120000ad000000ac
:10484400000000000000000008aa000030ac0000d6
:10485400174d000030860000bf67000013f1000010
:10486400a70000000000000000000000000000009d
:10487400000400001b4800004223000084bb000029
:104884007fb40000000000000000000000080000e9
:10489400a69f0000437800005ca100004e8b00003e
:1048a400a6e600007c4900000000000000000000b3
:1048b400000000000000000001f70000315d00006e
:1048c400273000000000000000000000000000008d
:1048d40000000000010b0000570b000079f70000f6
:1048e40000000000000000000000000000000000c4
:1048f4000244000033bb0000b45b0000c7000000aa
:1049040000000000000000000000000001ab0000f7
:10491400e3010000c2d2000000000000000000001b
:104924000000000000000000017a0000079e000063
:10493400ad84000000000000000000000000000042
:104944000000000002f10000eef70000d82900008a
:104954005000000000000000000000000000000003
:10496400012c0000355400003acc00000000000087
:1049740000000000000000000000000001c9000069
:104984003d6600006a98000000000000000000007e
:104994000000000000050000247a0000f71c00005d
:1049a40024400000eba200004dc2000066c80000d5
:1049b400372c0000030f0000f3010000066d000017
:1049c4009a420000f09400008fed0000bfe3000065
:1049d400283b00007269000037750000b4a0000095
:1049e4009a6e000031fd0000665b0000cbf300000e
:1049f400ba8c0000a4310000ffba00007c2400003f
:104a040054d30000c663000089930000e4ed000065
:104a1400da580000474e0000b58f0000d79300001d
:104a2400fdaf000031ea0000b4ec0000c90500004d
:104a34007d2b000015960000c10000007e80000060
:104a4400e6f7000047cd00006a770000f10e000091
:104a540059130000aa5c00008388000070dc000089
:104a6400c452000052200000b66900002d6c000002
:104a74006c8b0000662a0000cd5a00004130000013
:104a8400d6fb00007ba00000ec7a00002288000026
:104a94007c7100006eaf000062060000f4a8000004
:104aa400c68800008576000036c50000c0d8000026
:104ab400679600007ce800004dd40000fba90000cc
:104ac4006f0f0000b2a70000a31900006a300000b5
:104ad400fd6f0000fc2b0000cea400001b8e000024
:104ae4005748000051c60000980f0000e508000078
:104af4007b4d0000fc590000ddcf0000131b0000bb
:104b0400310c00005e3b000098e10000f4c300009b
:104b140041d70000a26400005e160000f9eb00001b
:104b2400ae200000e95d000054bd000099d30000f0
:104b3400a7c10000d9e5000032220000d69f000082
:104b44004fdd00006b3c00006de900004d96000055
:104b540052110000da23000086be000001c40000e8
:104b640051c200009cc60000f52f00001fd00000b9
:104b7400f1f5000057820000fecb0000fb4a000064
:104b8400df1d000000460000b8a700003a560000f0
:104b940066080000714e000047f800002726000058
:104ba4005f6c0000d8c30000059900000a7500007e
:104bb4008f4f0000c188000072a000005a1300004b
:104bc40008a30000828400002ece0000b5a30000dc
:104bd40046050000d66a0000785600004423000011
:104be40086f20000c9630000088b0000bdee0000df
:104bf40056d40000361f00003753000018e70000a9
:104c0400da1c0000fad0000005d500005fe70000c0
:104c1400b7ad0000362b0000cb060000c0530000e7
:104c2400f4320000a87500006fe30000c9a1000081
:104c3400b0a60000e6c20000410f00005d2e000097
:104c44000a64000050460000924900005b2d0000f9
:104c5400002e0000b52100003f0b00004a71000047
:104c640096880000844c000098aa000028230000c5
:104c7400ebef0000455c000062780000d6e4000021
:104c8400fb6d0000c3d90000356c0000b92a000098
:104c9400c674000071c400000c6500007ca3000011
:104ca400f96e00002db9000086b000000463000016
:104cb40094cf0000267d00009e1e0000f79900009e
:104cc400dae000008cdd000086f30000c8f100008b
:104cd400c64e0000155d0000ed340000bb900000de
:104ce400cdd60000260900001ef600002384000033
:104cf40051c10000ae4200008f84000096c900003c
:104d040057ae0000163600003a29000087650000ff
:104d1400b2ba000056960000d2f5000009ef000078
:104d2400304a00000f62000036fe00000030000030
:104d3400bd0900001b500000c33c000048d7000020
:104d440025e100008eb200006f4d0000752d0000bb
:104d5400adc600001eba0000fa4f000041af0000cb
:104d64007a6f0000a0a000004fb600008834000055
:104d7400698a00009e8300007a600000f3a80000a6
:104d84007e3900002a2000009c3200005e7d000075
:104d9400c4aa000097e600002635000042a10000e6
:104da400a0ef000039b300001c27000063d200000c
:104db4007f750000c01e0000b4fa00004d7a0000a8
:104dc4008181000039e00000792f000094a50000e3
:104dd400283a0000437e000097b5000094af00001d
:104de4002a100000380a00007f49000091c000002a
:104df4006c6500009ac60000c95d0000d552000031
:104e04004698000074ac000093e4000021b0000058
:104e1400eb080000faf40000412e0000a6f900009f
:104e2400c5ed0000e337000098c50000df52000024
:104e340082410000a2f20000561a0000f3a4000010
:104e4400c64000008db900005faa0000751e000076
:104e5400151e0000687800002b2b0000f43e0000b3
:104e6400c7cb0000f313000060e00000f4850000ed
:104e7400798800000c22000075870000b7510000fb
:104e8400e0d60000e3a0000092d30000d7e30000c6
:104e94006c5b00003eb7000080e7000048d60000cd
:104ea400d92f000049cc000075a0000004c90000ff
:104eb40048880000e9cc000032410000af30000017
:104ec400dec60000bc9d0000f7fc0000ff69000086
:104ed4000350000058a10000d6b800007b5e00001b
:104ee40060fc0000cc00000014af00003a30000069
:104ef40041b300004e63000047950000e4bd00008c
:104f040053740000d0f0000002b40000fe4800001a
:104f1400196c00003f230000f79b000044110000bf
:104f2400f2c2000045a60000377700006c100000b4
:104f3400630e00001ba70000d1960000ca0d0000fc
:104f44004f5b000043510000d6140000b72300005b
:104f5400e7990000a49f00004c7d0000d7dd00000d
:104f640008110000844d00005ce90000609000001e
:104f7400048b000014900000f06f00002645000030
:104f84000f2000008ce300006f46000078eb000067
:104f940012b400005ef00000deeb000022270000e7
:104fa4006278000042930000bce8000048c00000a2
:104fb40088bd00000fde0000232b0000d188000014
:104fc4000ae20000b43300008e61000036430000a2
:104fd40058420000ae6b0000d7f20000fe0a000049
:104fe400c1260000947a0000ce8c00003b430000f0
:104ff4005a620000ef7000008afe00004dd20000eb
:1050040037db0000a1b10000061b000030170000d0
:105014004ca00000241e0000becb000064e200008f
:10502400ce1300005cd7000005a60000763900000e
:1050340038f30000852c0000160e0000b3e20000d7
:105044003dff0000798800000b930000efad0000e5
:1050540055cd0000b4ef00008fb80000167a0000b0
:1050640005c000005e9200000f4f00009858000039
:10507400d4220000ad430000253100007852000026
:10508400c69a0000ca5e0000a64e00007997000090
:105094009abb0000df6d0000f1e20000d0b3000015
:1050a400ca2a00005c460000825c00001edd00008d
:1050b400d0c50000198900002b2c0000bdc00000e1
:1050c40084d900003339000067e40000e47900006b
:1050d40026b600009d1c00001de4000070a5000021
:1050e400a7610000892500004a570000337d0000b5
:1050f4000dca0000f3cc000022aa0000d7d900009a
:10510400cbe60000b296000046150000956800004a
:10511400d80f0000df6b000036da000019820000af
:1051240016ce0000384e0000cff2000036c8000052
:105134008007000053880000042f0000b214000010
:10514400195d0000c56c0000ef9500009c60000034
:105154008b6a0000e4fc00009db200009ced00009e
:105164001d9c00001bca0000a3260000dd9c00005b
:10517400635b00003b8800002bba0000223500006e
:105184002401000048ee0000a04f00006e960000cd
:105194004e29000091aa0000af56000047bd000050
:1051a4007bdd0000a155000099d80000b5a10000e6
:1051b400479300007bcd00007bcf000065de00003c
:1051c40050180000f205000049f1000099d80000d1
:1051d400942100003f7d000052c60000b1b40000dd
:1051e400e19f0000f07e0000606400008b3000004e
:1051f400e4ad00002c970000fb470000f709000015
:10520400010400007bf40000f7a70000a8040000dc
:10521400a57f000008580000796d000026270000d3
:105224006ad00000d9af0000c1c7000012230000fb
:10523400e1ae000098a400000fbc00001bfa0000bf
:105244009d9100000b15000015a5000024530000db
:105254001a130000e0c3000000950000389c000011
:10526400364c0000cff60000a9bc0000c15300007a
:1052740006040000f46f0000bf570000e0a6000021
:1052840014a60000497000007f3900002a4a00007b
:105294005a59000036330000b90d000047250000bc
:1052a40039370000047700007c450000ac19000089
:1052b4009325000049e000007a7b0000a2c60000ac
:1052c400957600008d3c000079b10000a7c3000072
:1052d400836300000323000047d70000acfb0000f9
:1052e400841600006f220000490b000097aa0000fa
:1052f400d5380000575e00002bbb0000a749000012
:10530400edd20000d57a000096be00008df50000b5
:10531400f946000056f500002fa70000a87a000007
:10532400ff3f0000e7e800008cf1000048e80000bf
:1053340046cb00004d250000f9350000932f0000f6
:10534400ce8b0000b8a90000c5d30000d22700000e
:10535400718600006f720000d9ca00004e900000f0
:10536400d36d0000b13c0000d3cb0000c930000075
:105374003a260000459d0000664400005c5f000082
:10538400d8e30000907c00001bd8000082dd000000
:10539400d3840000d4c600001b580000bf020000e4
:1053a400a53b0000100a00003ee300000994000041
:1053b4000b990000882b000047a70000908900008b
:1053c400c448000025360000db72000031ac000048
:1053d400f5a3000001150000d0e6000021610000e3
:1053e400eb59000072dc00009400000000980000fb
:1053f400f7b00000f9fa0000c10a00007edc0000ea
:1054040069ce0000905e0000821100000b9700003e
:10541400e299000055a200003dfa0000eb8800006c
:10542400bc4d0000c25400008d5f0000dea30000ec
:10543400e24800001320000046c50000a0810000df
:1054440004c400002b9a000084150000b89e0000dc
:105454009b620000a1ec00007d0800003cad000050
:10546400214b000089fc0000c69600007c3a000035
:10547400413500008a130000bd1b000043bf00003b
:10548400367a00004ece0000709e00002af600001e
:1054940039330000c73300004b3400007d2a00007c
:1054a40081fa0000252e0000c5c40000a1280000d8
:1054b4000ed500004d150000e069000012710000d7
:1054c40019aa0000ff59000048810000565300004b
:1054d400c9350000124d00008469000091360000b7
